:020000040800F2
:10000000A816002001010008FB1C0008F91B0008CD
:10001000F91C0008EB0700083F340008000000004E
:10002000000000000000000000000000C11F0008E8
:100030005D08000800000000BF1F0008C31F000883
:100040001B0100081B0100081B0100081B01000820
:100050001B0100081B0100081B0100081B01000810
:100060001B0100081B0100081B0100081B01000800
:100070001B0100081B0100081B0100081B010008F0
:100080001B0100081B0100081B0100081B010008E0
:10009000593300081B0100081B0100081B01000860
:1000A0001B0100081B0100081B0100081B010008C0
:1000B0001B0100081B0100081B0100081B010008B0
:1000C0001B0100081B0100081B0100081B010008A0
:1000D0001B0100081B0100081B0100081B01000890
:1000E0001B0100081B0100081B010008DFF80CD0F1
:1000F00000F03EFB0048004775370008A8160020B6
:100100000648804706480047FEE7FEE7FEE7FEE7B1
:10011000FEE7FEE7FEE7FEE7FEE7FEE72920000830
:10012000ED000008202A04DB203A21FA02F0002129
:10013000704721FA02F3D040C2F1200291400843F7
:100140001946704740EA01039B0703D009E008C93C
:10015000121F08C0042AFAD203E011F8013B00F88C
:10016000013B521EF9D27047D2B201E000F8012BD8
:10017000491EFBD270470022F6E710B513460A4627
:1001800004461946FFF7F0FF204610BD2DE9FE4F4B
:10019000804681EA0300C00F0C46009021F0004128
:1001A00023F00045B8EB0200A94105D240462146A4
:1001B00090461C460B46024623F00040104347D0B1
:1001C000270DC7F30A00C3F30A510290401A0190A9
:1001D00040286BDAC3F3130040F4801B009892466A
:1001E00020B10023D2EB030A63EB0B0B01985946B5
:1001F000C0F14002504600F006FA06460D46504651
:100200005946019A00F00EFA10EB080061410024F3
:1002100087EA115284EAE7731A4340D0009A62B326
:10022000019A012A4FEA075215DC001B61EB02011B
:100230004FF0004202EA0752CDE90042001C41F5AE
:10024000801132462B4600F045FA03B0BDE8F08F2E
:1002500040462146F9E7001B61EB0201001C41F515
:10026000801300185B412018A2F5001747EB03012B
:1002700040EAD570B6196D4111E06D084FEA3606B7
:1002800045EAC0754FEA0752001B61EB0201001CF2
:1002900041F5801149084FEA3000001951413246BA
:1002A0002B4603B0BDE8F04F00F005BA00980122DC
:1002B00040000023D0EB020263EBE073009821467C
:1002C0004FEAE074B8EB000061EB0401E9E783F06A
:1002D00000435BE781F0004158E72DE9FE4F81EADA
:1002E000030404F0004421F0004100944FF0000B9F
:1002F00023F0004350EA01045ED052EA03045BD0CD
:10030000C3F30A54C1F30A552C44A4F2F334019404
:10031000A0FB0254C1F3130141F48011C3F3130392
:1003200043F4801301FB024400FB034E840A970A46
:1003300044EA815447EA8357A4FB076802958D0A73
:1003400005FB07854FEA932C04FB0C542705029DFF
:100350004FEA065847EA1637B5EB08056EEB070C6F
:10036000870E920E47EA811742EA8312A7FB020129
:10037000B6EB0B0164EB00042B0D43EA0C335E1863
:1003800044EB1C50DA465146E7FB0201C5F3130467
:100390004FEA0B3343EA14534FEA0432019C43EA19
:1003A0000603A4F10C040294009CCDE900B400F013
:1003B00091F903B0BDE8F08F00200146F9E72DE97F
:1003C000F04D81EA030404F0004B21F0004514468F
:1003D0004FF0000A23F0004150EA050220D054EA11
:1003E00001021DD0C5F30A570246C5F31303C1F33A
:1003F0001300C1F30A5640F4801543F48013A7EBB1
:100400000608101BD64608F2FD3873EB050002D330
:1004100008F1010801E092185B41B8F1000F03DA1E
:1004200000200146BDE8F08D00204FF48011064603
:1004300084460EE0171B73EB050705D3121B63EB15
:10044000050306434CEA010C49084FEA30009218B4
:100450005B4150EA0107EDD152EA030012D082EA73
:10046000040083EA0501084305D0101BAB4106D206
:100470000122002306E000224FF0004302E06FF06B
:10048000010253101AEB06004CEB085110EB0A0066
:1004900041EB0B01BDE8F04D00F00DB970B521F056
:1004A000004303430CD0C1F30A550024D5EB0405E7
:1004B00064EB0403D617AD1AB34102DB00200146FA
:1004C00070BD201841EB025170BD0EB540F23341B2
:1004D00002910021CDE900110A460B4600F0FAF81E
:1004E00003B000BDC1F30A5210B5C1F3130140F2CD
:1004F000FF3341F480119A4201DA002010BD40F22E
:1005000033439A42A2F2334203DC5242FFF70AFE1F
:1005100010BD904010BD00F0004230F000400AD005
:10052000C10D01F56071C0F3160042EA0151C20825
:1005300040071143704700200146704730B5041E44
:1005400071F1000404DB4FF00044404264EB010110
:10055000141E73F1000405DB1C464FF000435242A9
:1005600063EB04038B4208BF824230BD01F00043BD
:1005700030B421F0004150EA010206D00A0DA2F584
:100580006072C1F31301002A02DC30BC0020704706
:10059000440F44EAC104C100E01830BC00EBC25073
:1005A00000F052B82DE9F05F0546002092469B46C8
:1005B00088460646814640241BE028464146474679
:1005C0002246FFF7AFFD53465A46C01A914110D359
:1005D00011461846224600F016F82D1A67EB01085E
:1005E0004F4622460120002100F00DF817EB0009CC
:1005F0004E41201EA4F10104DFDC484631462A4664
:100600004346BDE8F09F202A04DB203A00FA02F1BD
:10061000002070479140C2F1200320FA03F31943F0
:1006200090407047202A06DBCB17203A41FA02F0AF
:1006300043EAE07306E041FA02F3D040C2F120023F
:1006400091400843194670470029A8BF7047401CD5
:10065000490008BF20F00100704710B4B0FA80FCD8
:1006600000FA0CF050EA010404BF10BC704749B115
:10067000CCF1200421FA04F411FA0CF118BF012185
:1006800021430843A3EB0C01CB1D4FEA00614FEA65
:10069000102042BF002010BC704700EBC350104434
:1006A0000029A4BF10BC7047401C490008BF20F0BF
:1006B000010010BC704710B5141E73F1000408DA75
:1006C000401C41F1000192185B411A4301D120F016
:1006D000010010BD2DE9F04D92469B4611B1B1FAD3
:1006E00081F202E0B0FA80F220329046FFF78BFFF1
:1006F00004460F4640EA0A0041EA0B0153465A46B7
:10070000084313D0114653EA010019D0C8F1400242
:100710005046FFF707FD05460E46504659464246ED
:10072000FFF771FF084305D0012004E02046394659
:10073000BDE8F08D0020054346EAE0762C433743C0
:100740000A986305E40AA0EB08000022FD0A44EAC7
:1007500047540A3002D500200146E9E70105101987
:100760006941DDE9084500196941BDE8F04DA2E79E
:10077000064C074D06E0E06840F0010394E80700EE
:1007800098471034AC42F6D3FFF7B4FC1438000895
:100790003438000870B58C1810F8015B15F00703A9
:1007A00001D110F8013B2A1106D110F8012B03E00A
:1007B00010F8016B01F8016B5B1EF9D12B0705D412
:1007C0000023521E0DD401F8013BFAE710F8013B5B
:1007D000CB1A921C03E013F8015B01F8015B521E77
:1007E000F9D5A142D8D3002070BDFEE700207047A4
:1007F0000020704710B500220449054801F02AFD89
:100800000449034801F020FD002010BDBC0E00206B
:1008100084010020D40A002010B50146034801F0ED
:1008200013FD024801F0F4FC002010BD84010020FB
:10083000094A10B5D2F8B822D2F814220AB1012020
:1008400010BD0A460146044801F004FDBDE8104011
:10085000014801F05DBD0000840100207047704731
:1008600070B5044600F008F90546601C02D0044843
:100870000078044400F000F9401BA042FAD370BD98
:10088000600000202DE9F84FDFF8B891002409F14D
:10089000040A0AF1040B23460F270BF1040EC9E0EA
:1008A0000125A5402A40AA427DD1674ED1F804C057
:1008B000ACEB0608B44532D014DCBCF1030F3AD0DF
:1008C00009DCBCF1000F2AD0BCF1010F1CD0BCF137
:1008D000020F31D11DE0BCF1110F17D0BCF1120F86
:1008E0002AD119E0B8F5881F19D006DCB8F5803F89
:1008F00015D0B8F5801F1FD111E0B8F5001F0ED03C
:10090000B8F5041F18D10AE0CB6815E0CB681B1DB1
:1009100012E0CB6808330FE0CB680C330CE08B6837
:100920002BB1012B4FF0080303D0456104E00423F1
:1009300002E0056100E00023FF2A01D8064601E03D
:1009400000F104064FEA840501D9A5F12005D6F887
:10095000008007FA05FC28EA0C0803FA05F548EAC6
:100960000508C6F800804D68ED0062D5374DAE69C8
:1009700046F00106AE61AD6924F0030605F00105FD
:100980000095334D06EB050CDCF80850A607360F32
:1009900007FA06F825EA0805DFF8B880404503D1D4
:1009A0004FF0000817E044E0DFF8AC80404502D18A
:1009B0004FF001080FE0DFF8A480404502D14FF06E
:1009C000020808E0DFF89880404502D14FF00308A4
:1009D00001E04FF0040808FA06F848EA0508CCF8E8
:1009E00008804D68D9F80060ED034D4601D51643E7
:1009F00000E096432E604D68DAF80060AD0355467E
:100A000001D5164300E096432E604D68DBF8006088
:100A1000ED025D4601D5164300E096432E604D6819
:100A2000DEF80060AD02754601D5164300E096433E
:100A30002E60641C0D682A46E5407FF431AFBDE8A6
:100A4000F88F000000040140000011100010024067
:100A50000000014000080140000C0140001001406E
:100A6000001401408068084000D0012070470AB19E
:100A7000016170470904FBE7014880687047000086
:100A8000600000200248816802781144816070474C
:100A900060000020074810B5016841F010010160B6
:100AA000032000F075F8002000F006F800F024F8AC
:100AB000002010BD0020024070B50D4D04464FF4DB
:100AC0007A712878B1FBF0F00A490968B1FBF0F0BF
:100AD00000F0C8FD48B9102C07D200222146501E54
:100AE00000F036F800206C6070BD012070BD000081
:100AF000600000206C0000200C4808B5816941F0BE
:100B000001018161816901F001010091C16941F038
:100B10008051C161C06900F0805000900448416874
:100B200021F0E06141F00071416008BD0010024019
:100B300000000140002809DB00F01F020121914064
:100B40004009800000F1E020C0F80011704700006B
:100B5000F0B40E4B1B680C46C3F30223C3F1070528
:100B6000042D00D90425191D072901D2002300E016
:100B7000DB1E012606FA05F1491E214099409E40E0
:100B8000761E16403143F0BC02F06EBC0CED00E066
:100B9000064900F0070208684FF6FF03184040EAD4
:100BA0000220034A10430860704700000CED00E08B
:100BB0000000FA0510B50C0605D501F0070100EBA1
:100BC0004110283003E000EB411000F5947099B219
:100BD00032B1012202730181190C4181002010BD44
:100BE00000220273C180F9E7704700EB4112D0F890
:100BF0006802D26B01F03BBD00EB4112D0F86802F5
:100C0000D2F83C2101F096BD70B504460B0601F008
:100C1000070004EB40114FF001024FF0000503D52F
:100C200081F82920283103E081F8295101F59471D8
:100C3000087094F82802012808D084F82822206837
:100C400002F0BDF984F82852002070BD022070BD6A
:100C500070B5044601F00F006268904201D901208E
:100C600070BD0B0601F0070004EB40114FF00102CC
:100C70004FF0000503D581F82920283103E081F8E1
:100C8000295101F594718D70087094F8280201289B
:100C900008D084F82822206802F034FA84F8285218
:100CA000002070BD022070BD01F0070100EB411073
:100CB000D0F8440170472DE9F04104460F0601F0D9
:100CC000070004EB40114FF001064FF0000503D57B
:100CD00081F82960283103E081F8295101F59471E8
:100CE00008700A61CB704A7802B1C881022B00D12A
:100CF0000D7194F82802012809D084F82862206830
:100D000002F028F8284684F82852BDE8F081022035
:100D1000FBE770B50C4601F0070500EB4511C1E992
:100D20004F230022C1F8442181F8292181F828515C
:100D300001F594716207006802F039FA002070BD75
:100D400070B504460D4601F007006168884201D97C
:100D5000012070BD29064FF000064FF0010205D5B5
:100D600004EB401181F82920283105E004EB4511FE
:100D700081F8296101F594718A70087094F828024D
:100D8000012807D084F82822206802F0F7F96807C4
:100D900002D006E0022070BD04F50C71206802F05C
:100DA000AFF984F82862002070BD70B50C4601F0E0
:100DB000070500EB4511C1E90F2300224A64012217
:100DC00081F8292001F8285F6207006802F0EFF936
:100DD000002070BD10B50446006802F0FBFA000464
:100DE00002D5204600F08AFF206802F0F3FA4005A1
:100DF0000CD5206830F8441F21F480610180204622
:100E000000F0FCF80021204600F013F9206802F001
:100E1000E1FA400405D5206830F8441F21F48041F0
:100E20000180206802F0D6FA800405D5206830F8E9
:100E3000441F21F400510180206802F0CBFAC00465
:100E400014D5206830F8401F21F00401018020688B
:100E500030F8401F21F008010180204600F0E1F841
:100E6000206830F8441F21F480510180206802F08E
:100E7000B1FA00051FD5206830F8401F41F0080185
:100E80000180206830F8441F21F40061018020684F
:100E900030F8401F41F004010180206802F09AFA06
:100EA000C00405D5206830F8441F21F4805101802A
:100EB000204600F0F3F8206802F08CFA800508D58F
:100EC000206830F8441F21F400710180204600F0B2
:100ED000ACF8206802F07EFAC00505D5206830F82D
:100EE000441F21F48071018010BD00002DE9F04104
:100EF00086B0040004D094F82902002520B108E04F
:100F0000012006B0BDE8F08184F82852204600F0A8
:100F100057F8032084F82902206802F0EAF804F167
:100F20001001142288466846FFF70CF994E80F0078
:100F300002F043F80227B0BB0021206802F064FAF7
:100F4000002001260DE000BF04EB401181F829606C
:100F500001F8280FC881CD700D614D61401CC0B2F1
:100F60008D6161688142EFD800200FE004EB4011F1
:100F700081F8295181F8280181F82B51C1F83851A5
:100F8000C1F83C51401CC0B2C1F840516168814277
:100F9000ECD8142241466846FFF7D4F894E80F00D5
:100FA00002F098F810B184F82972A9E784F8245067
:100FB00084F82962206802F08BF80020A1E7000085
:100FC00008B500680B49884212D10B48C16941F449
:100FD0000001C161C069002200F4000000901146C8
:100FE0001420FFF7B5FDBDE808401420FFF7A2BDAF
:100FF00008BD0000005C00400010024070B50446CF
:1010000080680125022801D0FFF729FC2946D4F881
:10101000680201F076FCD4F86802BDE8704001F087
:1010200032BCD0F8680201F056BCD0F8680201F07A
:101030005CBC10B5044690F8280201280BD00120B2
:1010400084F8280284F82410206802F0DFF90020D8
:1010500084F8280210BD022010BDD0F8682200F5E7
:101060000C71104601F059BC10B5044690F82802E6
:10107000012810D0012084F8280201462046FFF7FD
:10108000B3FD206802F022F8206802F05EF900202B
:1010900084F8280210BD022010BD000010B50446DF
:1010A000D0F8680201F078FCA069002804D0034859
:1010B000016841F00601016010BD000010ED00E084
:1010C0002DE9F84305460078354CC00754D0E06957
:1010D0000026C00008D4E06940F08050E061E0697B
:1010E000012600F0805000902E480168C90512D4F6
:1010F0000168804641F480710160FFF7BDFC07463E
:1011000005E000BFFFF7B8FCC01B642823D8D8F85F
:101110000000C005F6D5206A10F4407021D0A988DF
:1011200001F4407181421CD0206A1F49012220F441
:1011300040700A6000220A602062C00711D0FFF7E9
:101140009BFC074641F2883808E000BFFFF794FC9B
:10115000C11B414502D90320BDE8F883206A8007FE
:10116000F4D5206A696820F44070084320621EB1FB
:10117000E06920F08050E0612878800705D560683C
:10118000A96820F44040084360602878C00605D56F
:101190006068E96820F48000084360600020DBE7B5
:1011A0000010024000700040400442422DE9F04728
:1011B0000F46050061D0434E306800F00700B8428A
:1011C00009D2306820F0070038433060306800F002
:1011D0000700B84251D128683B4C810712D540071F
:1011E00003D5606840F4E06060602878000703D5AC
:1011F000606840F4605060606068A96820F0F000AA
:10120000084360602878C00728D06868012810D09B
:101210002168022810D0890700292EDA616821F0A0
:10122000030101436160FFF727FC804641F28839E2
:101230000DE021688903EFE78901EDE7FFF71CFC6A
:10124000A0EB0801494502D90320BDE8F08760689A
:10125000696800F00C00B0EB810FEFD1306800F04E
:101260000700B8420BD9306820F0070038433060DF
:10127000306800F00700B84201D00120E5E7287887
:10128000400705D56068E96820F4E06008436060C5
:101290002878000706D56068296920F4605040EA84
:1012A000C100606000F018F86168084AC1F30311DA
:1012B000515CC8400649086006480068FFF7FCFB1F
:1012C0000020C2E70020024000100240043800085D
:1012D0006C0000206400002012A185B00FC98DE8C9
:1012E0000F0014A0144A006804905168134801F0DC
:1012F0000C03042B10D0082B0ED1C1F38343C90378
:101300001DF803000AD5516804AAC1F34041515C9D
:101310000A4A5043B0FBF1F005B070470849484312
:10132000FAE7000002030405060708090A0B0C0D82
:101330000E0F1010010200000010024000127A008F
:1013400000093D002DE9F84F040070D02078C04D11
:10135000C00749D06868C0F38100012807D06868D9
:10136000C0F38100022809D16868C00306D5286847
:10137000800339D560680028E7D035E06068B0F5B3
:10138000803F0BD010B1B0F5A02F11D0286820F409
:1013900080302860286820F4802002E0286840F42B
:1013A00080302860606890B1FFF766FB06460AE06F
:1013B000286840F480202860F0E700BFFFF75CFB5E
:1013C000801B642873D828688003F7D50CE0FFF7EA
:1013D00053FB064605E000BFFFF74EFB801B642869
:1013E000F0D828688003F7D420789A4E80074FF011
:1013F00001094FF0000839D5686810F00C0F07D0CC
:101400006868C0F38100022809D16868C00306D467
:101410002868800714D52069012808D110E02069C8
:10142000B0B1C6F80090FFF727FB074605E00AE1D8
:10143000FFF722FBC01B0228C4D828688007F7D515
:101440002868616920F0F80040EAC10028600DE0DA
:10145000C6F80080FFF710FB074604E0FFF70CFB1F
:10146000C01B022823D828688007F7D420780007FB
:101470002CD57948A169D9B1C0F80090FFF7FCFAE2
:10148000074604E0FFF7F8FAC01B02280FD8686A85
:101490008007F7D571484FF4FA510068B0FBF1F0BE
:1014A000009000BF0098411E0091FAD20EE080E04B
:1014B000C0F80080FFF7E0FA074604E0FFF7DCFA27
:1014C000C01B022875D8686A8007F7D420784007C7
:1014D00060D5E8690027C00008D4E86940F0805072
:1014E000E861E869012700F0805000905C480168DD
:1014F000C90513D40168834641F480710160FFF788
:10150000BBFA824606E000BFFFF7B6FAA0EB0A007E
:1015100064284ED8DBF80000C005F5D5E068012846
:101520000AD008B1052813D0286A20F001002862EB
:10153000286A20F0040002E0286A40F001002862D6
:10154000E06841F2883B98B1FFF796FA82460BE0DB
:10155000286A40F004002862EEE700BFFFF78CFA2B
:10156000A0EB0A0159455AD8286A8007F6D50CE045
:10157000FFF782FA824605E0FFF77EFAA0EB0A0148
:1015800059454CD8286A8007F6D41FB1E86920F085
:101590008050E861E06988B36968C1F3810102297C
:1015A00044D00228C6F8608004D0FFF765FA0446EC
:1015B00038E034E0FFF760FA074604E0FFF75CFA32
:1015C000C01B02282BD828688001F7D4206AB0F508
:1015D000803F05D16868A16820F400300843686046
:1015E000D4E908010843696821F47411084368606C
:1015F000C6F86090FFF740FA044606E025E000BF19
:10160000FFF73AFA001B022809D828688001F7D5AD
:101610001BE000BFFFF730FA001B022802D90320AD
:10162000BDE8F88F28688001F4D40EE00128F7D0D7
:101630006868226A00F48031914204D1616A00F442
:101640007010884201D00120EAE70020E8E700009E
:101650000010024000004242800442426C00002020
:101660000070004010B5401EB0F1807F01D3012012
:1016700010BD4FF0E02460610F21601701F0F4FE0F
:101680000020A06107202061002010BD2DE9F0415D
:101690003E4C074600252A4610212046FFF7E7F971
:1016A000002220212046FFF7E2F9002240212046B7
:1016B000FFF7DDF900BF012240212046FFF7D7F9EF
:1016C000012220212046FFF7D2F900BF012210217C
:1016D0002046FFF7CCF900BF00264FF0010800229A
:1016E00010212046FFF7C3F9C6F1050108FA01F001
:1016F000384201D0012200E0002220212046FFF7DD
:10170000B6F900BF012210212046FFF7B0F900BF53
:10171000761C062EE3DB002210212046FFF7A7F9F6
:10172000002000BF401CC0B20528FAD301221021BE
:101730002046FFF79CF900BF00260022102120461A
:10174000FFF795F908212046FFF78CF900B1012039
:10175000C6F117018840054300BF01221021204631
:10176000FFF785F900BF761C182EE6DB002210215A
:101770002046FFF77CF900BF002240212046FFF7FA
:1017800076F900BF2846BDE8F0810000000801405E
:1017900010B50020FFF77AFF20F07F4010BD10B594
:1017A0001220FFF773FFC0F3400010BD782202EA59
:1017B000C0004FF6FF7202EAC1110143052000F09C
:1017C00001B800002DE9F0413F4C0F468046002251
:1017D00010212046FFF74BF9002220212046FFF779
:1017E00046F9002240212046FFF741F900BF0122BF
:1017F00040212046FFF73BF9002220212046FFF739
:1018000036F900BF012210212046FFF730F900BF52
:1018100000260125002210212046FFF728F9C6F1F5
:10182000050105FA01F010EA080F01D0012200E0DD
:10183000002220212046FFF71AF900BF01221021C3
:101840002046FFF714F900BF761C062EE2DB0026C7
:10185000002210212046FFF70AF9C6F1170105FA08
:1018600001F0384201D0012200E000222021204670
:10187000FFF7FDF800BF012210212046FFF7F7F81F
:1018800000BF761C182EE3DB002210212046FFF754
:10189000EEF8002100BF491CC9B20529FAD3012284
:1018A00010212046FFF7E3F800BF00221021204658
:1018B000FFF7DDF800BF002240212046FFF7D7F8F0
:1018C00000BFBDE8F0810000000801402DE9F047AD
:1018D0001C4691468A460546FEF71DFE0746884689
:1018E0002046FEF7F2FD04460E464846FEF7EDFDA3
:1018F000DFF8C09002460B4600204946FEF75FFD28
:101900000222FEF7CBFD00222B4BFEF73FFC2246C6
:101910003346FEF7E2FC3A464346FEF7DEFCFEF7AE
:1019200025FE044625482649854201DD054602E09C
:101930008D4200D300252348844201DD044602E0A5
:101940008C4200D300242846FEF7E5FD00224B46DA
:10195000FEF7C3FC00221C4BFEF731FD1B4E00229C
:101960003346FEF713FCFEF7BDFD4FF47E5200F048
:101970007F0102EAC0150D432046FEF7CCFD002290
:10198000134BFEF71CFD00223346FEF7FFFBFEF76C
:10199000A9FD4FF4FE1101EA803028435146BAF107
:1019A000010F00D00021BDE8F04740EA8151092035
:1019B000FFF708BF00408F40000004405C8F2240CA
:1019C0000000808000C01E44000034400000E03F62
:1019D000000014402DE9F04706460F46FEF782FD51
:1019E0000446FEF772FD8946804632463B46FEF7C6
:1019F00071FC1822FEF752FD0022184BFEF7C6FBC1
:101A0000FEF770FD05464046494632463B46FEF726
:101A100095FD08D1B4F5002F01D3114C11E0102C25
:101A20000FD210240DE00E48C01E844201D9044696
:101A300002E0142C00D21424B5F1807F01D36FF0A2
:101A40007F45C4F3120125F07F440320FFF7BAFE5F
:101A50002146BDE8F0470420FFF7B4BE0000E03F98
:101A6000FFFF0700512110B560F300010320FFF7CD
:101A70009DFE43F246010A20FFF7A4FE0021052047
:101A8000FFF7A0FEBDE8104042F246010A20FFF732
:101A900099BE000070B540F6CD4442F24605B8B19B
:101AA000012824D112490620FFF78CFE2146072089
:101AB000FFF788FE29460A20FFF784FE0D490B2018
:101AC000FFF780FEBDE8704081210F20FFF77ABE4E
:101AD00009490620FFF776FE21460720FFF772FE30
:101AE00029460A20FFF76EFE02494031E7E770BD44
:101AF0004A0B200021C00700CA032000B0F5804F28
:101B000002D343F6FF7001E000B90120C0F30D01DC
:101B10000220FFF757BE10B53E2801D93E2001E054
:101B2000012803D0C20701D0401EC0B2032900D94A
:101B30000321890700F03F0242EA1161042801D223
:101B4000012000E0002041EA002441F22861052044
:101B5000FFF738FE46F2A0010520FFF733FE2146CD
:101B60000220FFF723FE0021BDE810400520FFF70B
:101B700029BE000070B5114C0546002210212046F8
:101B8000FEF775FF002240212046FEF770FF00227D
:101B900020212046FEF76BFF0520FEF761FE55B9B8
:101BA000012240212046FEF762FF00BF01221021E2
:101BB0002046FEF75CFF00BF70BD0000000801403A
:101BC00010B50120FFF79AFF0020FFF763FF3223D3
:101BD00040F6F61200210648FFF778FE03210620A2
:101BE000FFF799FFBDE8104000200249FFF7F2BE61
:101BF0005C8F224000804940FEE70000F0B50023E2
:101C00000A24302537261F4611E000BFB4EB107FB1
:101C100002D905EB107C01E006EB107C01F813C043
:101C200001EB430C00015B1C8CF80170DBB29342AA
:101C3000ECD3F0BD30B585B0002418480094019471
:101C400002940394816941F020018161816901F06E
:101C500020010491816941F0040181618069104D86
:101C600000F004000490002270212846FEF7FFFED9
:101C70000820CDE90004694628460294FEF702FEDA
:101C8000702000900120CDE90104032003906946F3
:101C90002846FEF7F7FD05B030BD000000100240F9
:101CA0000008014010B500220F49104800F0B8FCB0
:101CB00008B1FEF7D4FD0E490C4800F093FE08B1C0
:101CC000FEF7CDFD0B49094800F0B6FA08B1FEF762
:101CD000C6FD064800F0DCFE002803D0BDE8104039
:101CE000FEF7BDBD10BD00000000002084010020F3
:101CF0004C01002050000020FEE770472DE9F05F06
:101D0000044648F60F7B4FF0020A4FF480684AE120
:101D1000B0F8441011F00F0629D030F826703904BD
:101D200079D530F8261040F68F72114041F08001CD
:101D300020F8261004EB461595F8340105F5947546
:101D40000028206868D0297830F8212052047DD5F9
:101D5000B0F850200AEBC1010A4408EB4201415A95
:101D6000C1F309015FEA010971D02A89D2E0C906ED
:101D70002DD4018801EA0B0141F400410180206863
:101D800004F12805B0F850202B780AEBC3010A446F
:101D900008EB4201405AC0F309006064E16B08445B
:101DA000E06300212046FEF720FF94F8240000287D
:101DB000ADD0A8690028AAD194F82400216840F089
:101DC0008000A1F84C00002084F82400EBE001889A
:101DD00004F594750A0520D5B0F850202B7806211B
:101DE00001EBC3010A4408EB4201405A04F50C71AF
:101DF000C0F30903EB61EA88206801F0EFFA20687C
:101E0000018840F68F72114041F080010180204628
:101E1000FFF723F9C7E0A2E058E0090455D501888F
:101E200040F68F72114041F0800101802168B1F8C5
:101E300050202B78062000EBC300024408EB420040
:101E4000085A83059B0DEB6110D001E053E065E07B
:101E5000696959B1EA88206801F0C0FAE9696869DE
:101E60000844686100212046FEF7C6FE2068B0F8ED
:101E700050100844296900F20C4051B13E2910D895
:101E80004A08C90700D0521C4FF6FF7101EA8221AF
:101E90000FE0018821F4F8410180018841F40041FC
:101EA00007E04A09C90600D1521E4FF4004141EA39
:101EB00082210180206801884BF68F72114081F4E5
:101EC000405148F28002114301806CE0B0F850208C
:101ED0002B78062101EBC3010A4408EB4201415A69
:101EE000C1F309015FEA010924D0EA884B46696918
:101EF00001F074FA1EE0B0F85030062202EBC10186
:101F00005A1808EB4201415AC1F309015FEA01097D
:101F100004D06A894B46696901F060FA2878226822
:101F200032F8201048F68F73194048F2C003194365
:101F300022F82010E8694844E861686900EB09026A
:101F40006A61AB6913B12869484504D929782046EC
:101F5000FEF752FE03E029782046FEF7DAFE380647
:101F600021D5216804EB461031F8262002EA0B0245
:101F700042F4004221F826202168B1F8505010F8B0
:101F8000282F0AEBC2022A4408EB4202895AC1F305
:101F90000901C16142690A444261017883692046AE
:101FA00053B1FEF702FF2068B0F8441009043FF572
:101FB000AFAE0020BDE8F09FFEF717FEF3E77047D5
:101FC0007047FEF75FBD30B593B028216846FEF735
:101FD000D2F814210AA8FEF7CEF8002401200F94AD
:101FE00010941194010412948DE8130004904FF49E
:101FF000E010CDE90810022507956846FFF7A2F921
:102000000F20CDE90A056802CDE90C4002210AA89B
:102010000E94FFF7CBF810200F9012940FA8FFF743
:102020004FF813B030BD00000D48016841F00101C8
:10203000016041680B4A1140416001680A4A114041
:102040000160016821F480210160416821F4FE01F2
:1020500041604FF41F0181600449C003086070476C
:10206000001002400000FFF8FFFFF6FE08ED00E060
:102070002DE9F041D0F8C032D0F8B822CAB101EB56
:10208000810400EB84040025E6693EB103EB4113B3
:102090009B6BB6FBF3F703FB176323B1C2F8145233
:1020A0000020BDE8F08100231A46E56100F07DFCC8
:1020B000F6E70220F5E770B50546D0F8B84200F023
:1020C0007AFBC4F80C02D5F8B80248B1D5F8BC12B6
:1020D000D4F80402CA6804F503719047002070BD6B
:1020E000022070BD70B504460026812100F0B6FACA
:1020F000002501212046E56200F0B0FA8221204649
:10210000C4F86C5100F0AAFA2564D4F8B80248B1BA
:10211000D4F8BC0204F52E7440688047206800F0B3
:1021200014FE2560304670BD10B5D0E9AE4159B1FE
:1021300094F80002FF2807D08B6894F8012221460A
:102140009847FF2084F80002002010BD0A2101807A
:102150000048704774000020432101800048704708
:10216000C400002043210180004870478000002007
:102170004321018000487047080100202DE9F0410B
:1021800004460026007C4FF40077012590B34023DD
:1021900002228121204600F061FB4023E5620222F9
:1021A0000121204600F05AFB082303228221204609
:1021B000C4F86C5100F052FB4FF40770256400F036
:1021C000C5FDC4F8B802F8B10546D4F8BC020068F1
:1021D00080470020C5F81402C5F81802207CD5F805
:1021E000042298B140230121204600F043FB3046F1
:1021F000BDE8F081FFE73B4602228121204600F046
:102200002DFB3B46E562CAE70126F0E73B46EAE7DD
:1022100010B5D0F8B81269B1027C002AD1F80422B6
:1022200005D04023012100F025FB002010BD4FF414
:102230000073F7E7022010BD02460220002902D0F9
:102240000020C2F8BC127047D0F8B802C0F80412DF
:1022500000207047D0F8B802C0F81022C0F8081269
:10226000002070472DE9FC410546D0F8B8720020E7
:102270008DF80000ADF80400064608780C4610F012
:10228000600121D020293BD1E288AAB10006607804
:1022900007D5D5F8BC128B6839469847E28839468D
:1022A00026E087F80002A07987F80102E288394623
:1022B000284600F06AF828E0D5F8BC1260780022C1
:1022C0008B682146984720E0607820B10A2809D021
:1022D0000B2815D110E095F89C02032810D102229A
:1022E00001A905E095F89C02032809D1012269465D
:1022F000284600F064F808E095F89C02032804D012
:102300002146284600F036F802263046BDE8FC811A
:1023100010B5D0F8B812A1B1D1F814220AB1012039
:1023200010BD0122C1F81422D1F810220263B1F8C5
:10233000102293B2D1F80822812100F036FB002050
:1023400010BD022010BD10B5D0F8B42252689047DD
:10235000002010BD134610B50A46002100F08AFA8D
:10236000002010BD134610B50A46002100F01DFBE9
:10237000002010BD10B50446802100F0FBFA204675
:10238000BDE81040002100F0F5BA10B50323C0F8F5
:102390005C21C0F89432C0F8602113460A4600213F
:1023A00000F068FA002010BD10B505210023C0F828
:1023B00094121A46194600F05DFA002010BD10B5BF
:1023C0000223C261C0F89432026213460A46002119
:1023D00000F0EBFA002010BD10B504210023C0F876
:1023E00094121A46194600F0E0FA002010BD0000D1
:1023F00010B50A46024903A000F0E2F8004810BDFB
:10240000D408002043444320436F6E666967000090
:1024100012200880004870472000002010B50A46AE
:10242000024903A000F0CCF8004810BDD4080020F9
:1024300043444320496E7465726661636500000021
:1024400004200880004870471C00002010B50A4690
:10245000024903A000F0B4F8004810BDD4080020E1
:1024600053544D6963726F656C656374726F6E6906
:102470006373000010B50A46024903A000F0A0F8FB
:10248000004810BDD408002053544D333220566903
:10249000727475616C20436F6D506F727400000030
:1024A00010B51A2008800A480168001D0468001D44
:1024B0000068081809D008220649FFF79FFB054964
:1024C000042210312046FFF799FB0248801E10BD00
:1024D000E8F7FF1F36000020F8B504460020ADF8ED
:1024E000000048880D46010A082948D2DFE801F0BB
:1024F0004704091747473C45D4F8B012207C0A68C6
:1025000019E0207C02260028D4F8B40205D0C16A64
:1025100068468847014646703EE0816AF8E7C0B2E7
:1025200006282CD2DFE800F0030A1014181CD4F897
:10253000B002426805E0694690471CE0D4F8B0025A
:102540008268E2B1207CF6E7D4F8B002C268F8E70E
:10255000D4F8B0020269F4E7D4F8B0024269F0E7B7
:10256000D4F8B0028269ECE7207C40B9D4F8B40218
:10257000416B6846884701460EE0207C20B1294621
:102580002046FFF7F7FEF8BDD4F8B402016B6846A9
:102590008847014607204870BDF8000048B1EA8826
:1025A00052B1824200D90246ADF800202046FFF722
:1025B00006FFE8880028E6D12046FFF70DFFF8BDAA
:1025C00070B5002300281ED00446002502E06D1CD3
:1025D000EDB2641C2678002EF9D1022404EB4504E8
:1025E00014801278CA545B1C0322CA5400245B1C5A
:1025F00006E0CA545B1CDAB28C54521CD3B2401CA5
:102600000278002AF5D170BD01004FF0000004D01F
:10261000012901D0022901D0022070470120704712
:1026200010B580B1D0F8B43213B10023C0F8B43281
:1026300009B1C0F8B012012180F89C12027000F0BC
:10264000BFF8002010BD022010BD10B5D0F8C002A8
:10265000FEF7FEFABDE81040FFF7D6BF10B5D0F880
:10266000C002FEF7D1FABDE81040FFF7CDBF2DE95B
:10267000F0411746044651B1D4F8B40242691AB188
:1026800094F89C02032851D00220BDE8F081D4F8D0
:102690009432002504F11400022B03D0042B3AD00D
:1026A000C3B33CE0D0E903639E4207D9F11AC1608D
:1026B0008AB239462046FFF755FE12E08068B0FB2B
:1026C000F3F103FB110199B9984211D3D4F8981290
:1026D00088420DD2002211462046FFF743FEC4F87F
:1026E000985200231A461946204600F0C3F816E017
:1026F000D4F8B402C16829B194F89C02032801D12E
:10270000204688478021204600F034F92046FFF714
:102710004BFE04E0FFE78021204600F02BF994F8FF
:10272000A002012804D184F8A05201E0204690477D
:102730000020AAE770B51546044649B1D4F8B402A2
:1027400082691AB194F89C02032830D0022070BD2F
:10275000D4F8941204F5AA70032902D005291ED0DA
:1027600027E0D0E903218A420BD9531AC3600846F7
:10277000834200D303469AB229462046FFF7EAFD7A
:1027800017E0D4F8B402016929B194F89C02032837
:1027900001D1204688472046FFF71EFE09E00020B1
:1027A0000146C4F89402204600F0E4F801E0204617
:1027B0009047002070BDD0F8C002FEF775BA000047
:1027C00010B504461C481D49C0F86842C4F8C00250
:1027D0000160082141600221816000218161C161A5
:1027E0000162FEF783FB08B1FEF739F80022D4F846
:1027F000C0021823114604F53074FEF7DBF95823A4
:10280000002280212068FEF7D5F9C0230022812113
:102810002068FEF7CFF94FF4887300220121206869
:10282000FEF7C8F94FF48073002282212068FEF77A
:10283000C1F9002010BD000068060020005C0040C7
:102840000A06D0F8C00201F07F0100EB411002D56A
:1028500090F82A00704790F82A01704710B51C467E
:102860001346D0F8C0022246FEF725FABDE8104014
:10287000FFF7CABE10B5D0F8C002FEF74AFABDE8AD
:102880001040FFF7C1BE70B5002204464023114638
:10289000FFF7E4FF40260125C4F8646133460022B7
:1028A00080212046C4F85851FFF7D8FF6662A56121
:1028B00084F89C520020C4F894026060C4F8A4021A
:1028C000D4F8B80228B1D4F8B402002142682046F6
:1028D0009047002070BD90F89C12042903D190F815
:1028E0009D1280F89C120020704710B590F89C1241
:1028F000032904D1D0F8B412C96901B18847002076
:1029000010BD01740020704710B5D0F8C002FEF76A
:1029100090FBBDE81040FFF777BE70B5044600F5A8
:102920002A70054600F04AF80120C4F89402B4F871
:10293000AE02C4F8980294F8A80210F01F010AD061
:1029400001290DD0022910D000F08001204600F0AE
:1029500011F8002070BD2946204600F09EF8F8E7E7
:102960002946204600F0CAF9F3E72946204600F040
:102970001DF9EEE710B5D0F8C002FEF7E1F9BDE8A9
:102980001040FFF741BE10B5D0F8C002FEF76CFB57
:10299000BDE81040FFF738BE90F89C1280F89D12F9
:1029A000042180F89C120020704710B5D0F8C002B6
:1029B000FEF7FBF9BDE81040FFF726BE0A7802706B
:1029C0004A7842708A78CB7802EB032242800A79F7
:1029D0004B7902EB032282808A79C97902EB0121CB
:1029E000C18070470246002011B1C2F8B41270478E
:1029F0000220704710B5D0F8B42202241AB1126830
:102A0000904700B90024204610BD000070B50E4666
:102A10001E4D897804462970012931D894F89C020A
:102A200002280BD003280FD031462046FFF7A2FC26
:102A300029782046BDE87040FFF785BCD9B1032056
:102A4000616084F89C0209E071B16068884212D02C
:102A5000C1B22046FFF777FC297861602046FFF776
:102A6000C9FF02280CD006E0022084F89C02204610
:102A70006160FFF768FC2046BDE87040FFF7ACBC22
:102A800031462046BDE87040FFF774BC700000205E
:102A900010B5FFF778FF002010BD2DE9F0410A784E
:102AA000002612F0600208D0202A01D0402A70D1FE
:102AB000D0F8B422926890476DE04B78002201254F
:102AC0000A2B66D2DFE803F0405D655765080565AF
:102AD0002C29FFF701FD5EE004468888D8B9C88834
:102AE000C8B94888802816D200F07F0794F89C0265
:102AF000032810D084F89E7239462046FFF704FF61
:102B00002046FFF769FC1FB1022084F89C0242E0D6
:102B100084F89C523FE020463BE0FFF777FF3AE025
:102B2000CB88012B35D190F89C32012B04D0022B9D
:102B300002D0032B2DD104E08260012200F10801B4
:102B400016E00122011D13E090F89C22012A03D017
:102B5000022A01D0032A1CD1CA88022A19D1C560D1
:102B6000D0F8A41209B10321C160022200F10C01C6
:102B7000FFF725FC0FE0498801290CD1C0F8A452C9
:102B800011E090F89C32012B08D0022B06D0032BC9
:102B900004D0FFF7EFFB3046BDE8F08149880129FA
:102BA000F9D1C0F8A422FFF717FCF4E72DE9F041B2
:102BB0000A46044610780027097910F060030AD00D
:102BC000202B01D0402B50D1D4F8B4021146836899
:102BD000204698478FE0C0F34110012806D0507876
:102BE000D0B301282AD003283FD107E0D4F8B4029B
:102BF000114683682046BDE8F041184794F89C02CE
:102C0000022802D0032872D10AE071B380296ED065
:102C10002046FFF7AFFE80212046FFF7ABFE6AE0BB
:102C2000508838B931B1802904D0D08810B92046F5
:102C3000FFF7A0FE2046FFF7CFFB5CE094F89C0274
:102C40000228E2D0032852D1508898BB4806F1D020
:102C50002046FFF7FAFCEDE7FFE794F89C02002618
:102C6000022803D0032842D112E040E009B18029B4
:102C70003DD1080601F07F0000EB800004EB8001ED
:102C800001D5143101E001F5AA7102220E602AE09B
:102C9000080601F00F0000EB800004EB80000AD56D
:102CA000806920B301F07F0000EB800004EB800519
:102CB00014350BE01FE0D0F85801C0B101F07F00DF
:102CC00000EB800004EB800505F5AA7541B1802971
:102CD00006D02046FFF7B4FD10B10120286000E0C7
:102CE0002E60022229462046FFF769FB03E01146C9
:102CF0002046FFF73FFB3846BDE8F08170B505463A
:102D000008780C4610F0600003D0202801D040283D
:102D100016D195F89C02012803D0022801D003287F
:102D20000ED1207901280BD8D5F8B4028268284644
:102D30009047E188014306D12846FFF74DFB02E0AA
:102D40002846FFF717FB002070BD7047004870470A
:102D5000480400202DE9F0470C784FF0000C30F8C3
:102D6000243048F68F121340CA78002A7DD0012AF9
:102D70007CD0022A03D0032A79D04FF0010C48F20C
:102D80008002134320F824300D7830F8254048F6AF
:102D90008F731C402C43144320F825400F7B48F6CA
:102DA000BF744BF68F7948F2C0054CF28006EFB342
:102DB00091F80080C24630F8287048F280181F4011
:102DC00047EA080720F82A70B0F8507091F80080A0
:102DD000074407EB0817B1F8088028F00108A7F8A6
:102DE0000084B0F8507091F80080074407EB081792
:102DF000B1F80A8028F00108A7F808844F7891F804
:102E00000080002F30F828704FEA47477ED0002F0F
:102E100005DA30F828701F40374320F828700F7803
:102E200030F827805FEA486809D500E033E030F8E1
:102E3000278008EA030848EA050820F827800F7869
:102E400030F827501D40354320F82750CB780D78B7
:102E5000012B30F8253003EA040301D083F020036E
:102E6000134320F825300B7802E00BE010E00CE073
:102E700030F8231001EA0901114320F823106046BD
:102E8000BDE8F08743F4007379E743F4C06376E765
:102E900043F4806373E74F7827B3B0F850600F783E
:102EA000064406EB0716CF8827F00107A6F8007442
:102EB0000F7830F82760760605D530F827601E4079
:102EC0002E4320F82760CB78012B06D00B7830F802
:102ED0002310214081F02001CEE70B7830F8231039
:102EE0002140C9E7B0F850400D78044404EB0514C4
:102EF000CD8825F00105A4F80854B0F850400D78AD
:102F0000044404EB051404F20C4400E030E00D69C5
:102F100055B13E2D10D86F08ED0700D07F1C4FF63D
:102F2000FF7505EA87250FE0258825F4F8452580FB
:102F3000258845F4004507E06F09ED0600D17F1EA6
:102F40004FF4004545EA872525800D7830F8254067
:102F5000640405D530F825401C40344320F8254052
:102F60000B7830F8231001EA090181F4405183E71E
:102F7000002F05DA30F828701F40374320F82870FA
:102F80000E7830F826707F0605D530F826701F4081
:102F90002F4320F826700F7830F827601E402E430C
:102FA00020F827600D7830F8253003EA090383F410
:102FB0004053134320F825308FE7002070472DE958
:102FC000F04391F80C804F780A7848F6BF7C4BF6B6
:102FD0008F7948F2800348F2C0054CF2800648F62B
:102FE0008F74B8F1000F28D0002F30F822704FEA0C
:102FF000474748D0002F05DA30F822702740374382
:1030000020F822700A7830F822707F0605D530F853
:10301000227027402F4320F822700D7830F82520A9
:103020002240324320F825200C7830F8242002EA90
:103030000C021A4320F824201AE07FB130F82260F5
:10304000760605D530F8226026402E4320F822600F
:103050000A7830F8221001EA0C010EE030F8225014
:103060006D0405D530F822502540354320F8225014
:103070000A7830F8221001EA0901194320F82210D9
:103080000020BDE8F083002F05DA30F822702740D9
:10309000374320F822700A7830F82260760605D58A
:1030A00030F8226026402E4320F822600E7830F857
:1030B000262022402A4320F826200C7830F82420AD
:1030C00002EA09021A4320F82420C1E700207047D1
:1030D0000020704700B50121A0F840100021A0F8A1
:1030E0004010A0F84410A0F8501000F02EF9002075
:1030F00000BD30F8401F21F43F410180002070479F
:103100000020704730B50A7BB2BB4A7848F68F750D
:1031100048F28004C2B10B7830F82320520607D55C
:1031200030F823202A4048F2C0052A4320F8232003
:10313000CA78012A20D00A7830F8221048F6BF73E6
:10314000194081F0200114E00A7830F822305B0445
:1031500007D530F822302B404CF280052B4320F865
:1031600022300A7830F822104BF68F73194081F420
:103170004051214320F82210002030BD10B54A787C
:103180000978002A48F2800330F8212005D048F65B
:10319000BF74224082F0100204E04BF68F7422408C
:1031A00082F480521A4320F82120002010BDF0B58F
:1031B0000E46054691F801C00022097B3469B069CA
:1031C00048F28007BCF1010F04D0A0424FD9001B88
:1031D000B0614EE0A04202D9001BB06101E004469C
:1031E000B26169B1307835F820104906B5F8501051
:1031F000294401EB001012D5A0F80C44728911E0AB
:10320000A3B2F2882846716900F006F9B5F85000BB
:103210003178284400EB0110A0F804441EE0A0F827
:1032200004443289A3B22846716900F0F5F8707839
:1032300048F68F7110B1012807D00FE0327835F8C9
:103240002200084048F2C00105E0327835F822003B
:1032500008404CF28001084325F82200317835F807
:10326000210048F6BF72104080F0300068E004464C
:10327000B2614FF6FF724FF4004381B3BCF1000F0F
:1032800015D027E0018821F4F8410180018841F43C
:1032900000410AE03E2C3ED86108E30700D0491CFB
:1032A00002EA812101E043EA8121018040E0B5F892
:1032B00050003178284400EB011000F204407CB14A
:1032C0003E2C15D861085FEAC47C00D0491C02EA94
:1032D00081210180707810B1012821D028E00FE011
:1032E000018821F4F8410180018841F40041F0E7B0
:1032F00061095FEAC46C00D1491E43EA8121E8E715
:10330000B5F850003178284400EB011000F20C4071
:10331000002CBFD1B6E76109E206C4D1491EC2E75D
:10332000B5F850104819317800EB0110A0F80C44A2
:10333000317835F821004BF68F72104080F4405000
:10334000384325F821000020F0BD30F8401F41F43B
:103350003F410180002070470148FDF73BBD000060
:103360006806002070B586B00024184800940194C7
:1033700002940394816941F0040181618069144ED3
:1033800000F004004FF48055049022462946304650
:10339000FDF76DFB01200095CDE9010402200390AB
:1033A00069463046FDF76EFA002229463046FDF7A1
:1033B0005EFB4120FDF754FA012229463046FDF715
:1033C00056FB4120FDF74CFA06B070BD00100240DC
:1033D00000080140B0F844007047000010B500EB51
:1033E00042005C0800F5806009D000BF30F8042B73
:1033F00001F8012B120A01F8012B641EF6D1DA073D
:1034000001D00088087010BD0020704711B98021DC
:10341000A0F84C100020704710B55B1C00EB420078
:103420005B0800F5806009D011F8012B11F8014B01
:1034300042EA042220F8042B5B1EF5D110BDFEE702
:103440000FB4084B10B504A902AA039800F02CF899
:10345000044602A9002000F087F9204610BC5DF860
:1034600014FB0000693700080907090E002804DB77
:1034700000F1E02080F80014704700F00F0000F128
:10348000E02080F8141D704702E008C8121F08C130
:10349000002AFAD170477047002001E001C1121FD5
:1034A000002AFBD1704700002DE9FF4F8DB09B46ED
:1034B0000F460446002606E025280BD05A460F99F1
:1034C0009047641C761C20780028F5D111B0304656
:1034D000BDE8F08F0025A8460122984900E0054389
:1034E00014F8013F203B02FA03F00842F7D120789C
:1034F0002E2817D114F8010F45F004052A280ED004
:103500006FF02F022078A0F1300109290AD808EBCA
:10351000880102EB410100EB0108641CF2E757F857
:10352000048B641C20786C280DD004DC4C2812D04D
:103530006A2811D104E074280DD07A280CD10AE051
:1035400045F4001507E0617845F48015814202D109
:10355000641C05F58015641C2278692A45D008DCB6
:10356000002AB3D0582A69D0632A10D0642A08D11F
:103570003BE0702A67D0732A13D0752A5CD0782A72
:103580005CD010465A460F999047761CD3E017F846
:10359000040B8DF8000000208DF80100E9460120A1
:1035A00003E057F8049B4FF0FF3069074FF0000528
:1035B00001D40AE06D1C45450DDA8542FADB19F8A5
:1035C00005100029F6D106E06D1C8542FCDB19F8D8
:1035D00005100029F8D12E4404E019F8010B5A46D1
:1035E0000F9990476D1EF8D2A5E00A200021CDE981
:1035F0000801C5F3025002280DD001CFC117031EE8
:1036000071F100030DDA4FF0000CD0EB0C006CEB05
:1036100001012D2308E0FF1D27F00707F7E802014D
:10362000EDE72B0504D52B238DF8283001233BE053
:10363000EB0739D02023F7E70A2000E01020002113
:10364000CDE9080107E01020002145F00405CDE98F
:1036500008014FF00808C5F3025002280FD001CF2F
:1036600000214FF0000A2B071FD5702A0DD0DDE98D
:1036700008C38CF0100C5CEA030C0CD015E0FF1DA5
:1036800027F00707F7E80201EBE740228DF8282032
:103690004FF0010A0BE050EA010306D030238DF809
:1036A00028308DF8292002239A46582A04D024A2D3
:1036B0000DF120090B9209E026A2F9E7DDE90823C4
:1036C000FCF770FF0B9B9B5C09F8013D50EA01027F
:1036D000F4D1ADEB090020300890680701D44FF019
:1036E00001080899884502DDA8EB010000E00020F0
:1036F0008046002506E00AA85A46405D0F9990478B
:103700006D1C761C5545F6DB04E030205A460F99B7
:103710009047761CB8F10001A8F10108F5DC05E03E
:1037200019F8010B5A460F999047761C0899481EC4
:1037300008900029F4DC641CC5E60000092801009B
:103740003031323334353637383961626364656617
:1037500000000000303132333435363738394142D9
:1037600043444546000000000A68531C0B6010707B
:103770007047000088B0FDF78DF9FEF724FCFFF7D5
:10378000F1FDFEF757FAFEF78DFA0020FEF7F2F989
:10379000FEF716FA0120FEF765F94FF47A7500BFBF
:1037A000FDF7F6FF0646FDF7FAFF044620216846BE
:1037B000FCF7E1FC012C0DD007A3324609A16846B5
:1037C000FFF73EFE20216846FDF732F82846FDF758
:1037D00047F8E5E709A3F0E7554E4C4F434B454406
:1037E00000000000484D433833302049443A3078D7
:1037F00025580D0A4C443A25730D0A004C4F434B93
:103800004544000000000000000000000102030425
:103810000607080934380008000000208401000071
:1038200094070008F43800088401002024150000E3
:10383000983400081311241B0841041A4D041A750A
:10384000041AA10413F1231B081D0817040309041B
:10385000120114020202164083044057260201029C
:103860000301031A1A031BF5074019041AED041388
:1038700019081A082F1182105324F4130A06320271
:103880002A401C1C090243571125C03209041B01A0
:10389000020B13052416100105240110090104244C
:1038A0000202052406170107058203081C100904FB
:1038B0008D320A1D07050102432C070581070938CF
:1038C000442A40072A8107112B0907440A3B044474
:1038D000137D211408E5201408652242081A2910D6
:1038E0001A71101AB704C11A65182A591C19041A3A
:0438F0004D04000083
:04000005080000ED02
:00000001FF
